:020000040000fa
:080000000002040000000000f2
:020000040000fa
:100008007a0300007a0300007a0300007a030000f4
:100018007a0300007a0300007a0300007a030000e4
:100028007a0300007a0300007a030000cc02000083
:100038007a0300007a0300007a0300007a030000c4
:100048007a0300007a0300007a0300007a030000b4
:100058007a0300007a0300007a0300007a030000a4
:100068007a0300007a0300007a0300007a03000094
:020000040000fa
:10040000ef1421000eff28000e01880000000000fc
:1004100000012000200288000c00070000ee2000f0
:10042000010020000f000700000020000000e00095
:10043000020032000000020000000000dc11020097
:10044000000000000040da000000fe0080032000f1
:100450000000e0000200320000202000900188002f
:1004600000000600a1028800800078000000eb0078
:100470001a003700e280400054a0b4009101ba0095
:10048000e280400054a0b4009102ba00e280400033
:1004900054a0b4000002eb00472bde00f507b200c9
:1004a000a6018800602ce10008003a000049eb003a
:1004b0000201e800020039003420ec0002f0a00044
:1004c0008301e900f9ff3e00040037006128e100e4
:1004d000010032000082eb00040007001101ba00a5
:1004e0000200e000e3ff3a000000060004d0a30091
:1004f000e20f49001c003900810278003549ba003a
:100500000201e800020039003420ec0002f0a000f3
:100510008301e9000f0032002549ba000201e8001a
:10052000020039003420ec0002f0a0008301e90051
:10053000080032000400e0000600320015c9ba00cd
:100540000201e800020039003420ec0002f0a000b3
:100550008301e9008180e80054a0b4000300e000ba
:10056000e2ff3a00000006009102ba000559780047
:100570008301e900f7ff3200c82ade000559780040
:100580008301e900f3ff32000400e000f1ff3200d4
:1005900011d9ba00eeff37003600f800809fbe0088
:1005a000829fbe00849fbe00869fbe000400fa00aa
:1005b0000068a900020707001e0707000042eb00c1
:1005c0003447980014838000e80f52000200340082
:1005d00044c6b3003447980014838000e80f4200fb
:1005e00002003d00c4c9b300344798003e42900069
:1005f00004407800cb0507000042eb002447980038
:100600004300200042062100ae409000200421005b
:10061000320507000042780024479800430020007c
:10062000a2052100ae409000200421002b05070008
:100630000042780024479800230020002206210071
:10064000ae409000200421002405070000427800fd
:10065000244798006302470013002000040178003b
:10066000ae409000200421001c05070000427800e5
:1006700024479800c3c0b300d2042100b1c0b30026
:1006800020042100ae0407000002eb00040f7800f4
:1006900006003700d40421001e02420014427800f4
:1006a000044078004b0407001e0fe8001e0278008b
:1006b000eb0f5200f7ff34000040eb004504070049
:1006c000248380003583800061024200e0824a007a
:1006d00024838800358388000080fa004f03be0021
:1006e0004f02be004f01be004f00be003600f900b1
:1006f000004006000040da000000fe006022b80062
:10070000060220000000d0008180d2000482d200c6
:100710008582d2000000a0000202520083825a00ab
:10072000030031000202420083824a000000a1005f
:100730000603e900f3ff3a00000006000000fa009b
:10074000889fbe000004be00050037000000fb00cb
:100750008900780021000700e10f4000040032000a
:1007600038407800e04f5000f8ff3a000000eb00fe
:100770004f04be000080fa00000006000000fa00ee
:10078000881f780041112100ecff07000004780069
:1007900041112100a000200010000700080078008f
:1007a0004f0478000080fa00000006000000fa0004
:1007b00041112100090007000080fa000000060036
:1007c0000000fa0068015700ceb8970040112100e0
:1007d000480007000080fa00000006000000fa0050
:1007e000889fbe000104780038029000e202620097
:1007f0008084eb003b003200040378000620b20046
:100800009802900002003a00e08f520035003a0052
:100810000490a0003404980080047800f90fb2001e
:10082000e08f520002003a00a8029000050c780008
:10083000ea8f540005003a000408b20003003a00b1
:1008400088007800d0002000e4ff07001802900024
:10085000d8029000850f52000b0032000402e8001d
:100860001404980018027800094a7800040ce80083
:1008700015c0b30064142100054a7800ea8f5400c3
:1008800018003a0005003700880078000940780019
:100890001d02070080047800120037003802900023
:1008a0000410b2000f00320018019000a800900060
:1008b000480090005802070018029000840f500072
:1008c00004003200380290000403b300340498009e
:1008d0008084eb000002eb001404980028029000d2
:1008e000040c7800090078004f04be000080fa0074
:1008f000000006002a00fa00889fbe008a9fbe0002
:100900008c9fbe00400f9800110f9800320f980086
:100910000006eb00f10137009e0890008100e8001e
:10092000110f980054c2b300844f500006003a00e3
:10093000010278008042eb0002c3b30001c2b300a1
:10094000b0c2b300070037000000fb00ce089000e3
:10095000a2ff0700e10f4000e00132000c06e800b2
:10096000de01370004037800b4437800d3c2b3003b
:1009700083cf53000900320005003c0081cf5300b3
:100980000800320080cf53000c003a000700370007
:1009900082cf530009003a00060037000534a0005a
:1009a000f0ff37000504a000eeff37000514a0009b
:1009b000ecff37000524a000eaff370062826200e6
:1009c000010032000504a1006882620001003200cb
:1009d0000524a1000702fb000403b100e90f520047
:1009e0000c003e00860378000002eb00ea22b8000b
:1009f0003703fb000603b10004024300070378003d
:100a00001700fb000003b100e90f5000f7ff3600ac
:100a1000080037000002eb00a0c2b30080cf5300f3
:100a200004003a00be0b900047027800370f980090
:100a30000603e8008006eb00e7c2b30096cf130080
:100a400009003a00e4c35300d6cf1300020032007d
:100a500086037800090037003e089000c006780041
:100a6000300f98000603e80031c6b300c0c6b300db
:100a700008003700ea6bb8008606400007037800dc
:100a80003700fb000003b100e90f5000f9ff36000a
:100a9000f5ff370006017800b243780002037800c2
:100aa00033c7b30083cf53001a00320008003c0064
:100ab00081cf53005c00320080cf53000c00320025
:100ac000120f9800e0cf5300890132007600370002
:100ad000120f980056c7b30086cf5300760032003d
:100ae0006343430086cf53006f003a00060037008f
:100af0007081620007c1b300010032008043eb0047
:100b000087c27200e3ff3700074f78000574a0002a
:100b10006c003700120f980036c7b300064f7800fc
:100b2000be0b900047037800370f9800060478004a
:100b3000e00f530001003a00e8122100880378001a
:100b40000003eb00010037000603e80006804300c5
:100b50008040eb0090cf1000fbff3a008604780045
:100b6000e08f560003003200898f560001003100eb
:100b70008d0478008006eb00890f520001003600da
:100b800089065200e8826200550f980014003a006e
:100b900007003700ce089000000220000fff07007a
:100ba000e10f4000010032000c06e8008d06e9006c
:100bb000e08f5600f7ff3a008086eb000800370010
:100bc000080278003400fb0004047800ce0890008e
:100bd00002ff0700e10f4000010032000c06e800b0
:100be000090278008404e900e00f5200f4ff3a00a3
:100bf0005e099000e00f5100380132000700370015
:100c0000ce08900000022000f4fe0700e10f400033
:100c1000010032000c06e8008d06e900e08f560066
:100c2000f7ff3a002d013700120f9800be0990001f
:100c300043037800330f980006007800cf80de0071
:100c40000101780082017800500f9800610f980030
:100c5000720f9800031798004800de00480bdd0073
:100c600000007300004f7800f0836200090032003a
:100c7000e04f500007003200e14f40000500320015
:100c800010479800ae5b900027479800290020008d
:100c9000030037002e5890001047980019002000dc
:100ca0000e04e800aeff3700074f78000e0478000e
:100cb00019002000aaff3700074f780006ccb300c8
:100cc00086c272008582fb00550f9800f082620098
:100cd0000e003200be0a90004501be00350f98009c
:100ce00042079800530798000003eb00660798003e
:100cf0008003eb00770798004e049000de0490001c
:100d00006e059000fe059000060037003e0890003a
:100d100040047800300f9800090020000a002000ed
:100d20000b002000e08f560007003a001d00200055
:100d3000e00f5400e08f5c00e00f5d00e08f5d008d
:100d4000010032008006eb00de089000010cb200ca
:100d5000010f980005082000858f50001000320018
:100d6000050c2000858f500021003a000607210065
:100d700015c0b3003600be003601be000040e100e1
:100d800001c8e10002d0e10003d8e10017003900fa
:100d90008542e800f4cf5200f6ff3a001300370016
:100da00015c0b30000012000010020006011b80050
:100db0000040e10001c8e10002d0e10003d8e100f9
:100dc0000a003900460020000000d0008180d200d7
:100dd0000281d2008381d2000603e900faff3a00c3
:100de0008542e800f0cf5200f1ff3a00054f78004d
:100df0009e02fb008d8f520002003d000d4f7800d7
:100e000003003700858f560001003d0085067800fd
:100e1000e00f520004003200de0b9000e38263001a
:100e2000010032000402e9009e02fb000000eb001a
:100e3000200f9800850f52000200340085025200f6
:100e4000250f9800de089000648260002c003200bc
:100e5000e282600061826000e08f52000600320092
:100e6000b0022000e00f5200010032000080e800d4
:100e7000ce08900004003700e00f52000600320058
:100e8000ce0890000002200054fe0700e10f400051
:100e9000010032000c06e8002e099000e00f51001e
:100ea000460032000802be000a03be008204780039
:100eb000ce08900000032000141798002517980012
:100ec000361798004717980044fe07001e1290003e
:100ed000ae1290003e139000ce139000e10f400040
:100ee000010032000c06e8008904e900f0ff3a0036
:100ef000290f98000605be000404be002f0037002d
:100f0000ae099000e08f510019003200de0a900017
:100f10006882620016003a000802be000a03be00a2
:100f200083047800ce089000000220001417980077
:100f300025179800361798004717980027fe0700d6
:100f40001e129000ae1290003e139000ce1390003f
:100f5000e10f4000010032000c06e8008904e900be
:100f6000f0ff3a00290f98000605be000404be00f9
:100f70005e0b9000e202630061026300e08f5200aa
:100f800006003200b0022000e00f520001003200e3
:100f90000080e800ce08900004003700e00f520007
:100fa00006003200ce089000000220000bfe070071
:100fb000e10f4000010032000c06e8000d02e900dc
:100fc0004323dd0085062100850243003507980094
:100fd0004222dd00240798002f0037008d06e9002b
:100fe0008e0b900000082000808f5300100032000c
:100ff000040c2000848f53001b003a00be009000b8
:101000003102be002103be000800be000a01be007e
:1010100050010700a4002000050020006033b80044
:101020005501070004c3b300044f40000e00370011
:101030000802be000a03be002e0090000000e90076
:10104000050033008703d1000683d3008582d300d7
:101050000482d300f9ff37006f02620051132100b0
:1010600001024200144f78001e00fb00ce089000e1
:10107000dafd0700e10f4000010032000c06e80035
:101080003e0190006801510032079800ae019000c7
:10109000e481510023079800e08f5600cfff3a000b
:1010a000de0a9000688262000c0032002e0b900075
:1010b000e00f53000900340086067800ce08900047
:1010c00000022000c5fd0700e10f400001003200d2
:1010d0000c06e8008d06e900f8ff3a009e0b900030
:1010e00017407800004f7800e04f50000afe3a00a9
:1010f0000c0078004f06be004f05be004f04be0036
:101100000080fa00000006000200fa00889fbe007e
:10111000004f7800010478003802900084027800c3
:101120000504b200020032000000fb00330037006b
:10113000e202620005003a000403b30034049800a0
:10114000150498000080eb002c003700d8049000b4
:10115000e08f540006003a00120020008e00780054
:10116000480090002c000700190498002200370066
:10117000a8029000e08f520008003a009514210068
:1011800025049800050c78002500200055049800df
:10119000150498000430a000340498001801900051
:1011a000a8009000480090001b0007002802900053
:1011b0008082eb00150498001e4a7800040ce800b9
:1011c000a4c0b3009e4f12000b003a0038029000fa
:1011d0000410b2000800320018019000a80090002e
:1011e000480090000c0007000002eb001404980077
:1011f00028029000040c78001e00fb004f04be0083
:101200000080fa00000006000000fa0000c0da00ca
:101210000080fa00000006000a00fa00e20f500009
:1012200022003e00648a8000e10f52000600320076
:1012300087232000462320002423200005232000ac
:10124000e08f530004003a0087222000462220004d
:101250002422200005222000000028001500600044
:1012600003003a00800b780007002800958a73007d
:10127000054020009482620001003a0014a0a00002
:101280008202780006003700940378000710b2004d
:10129000fdff3200b103fb00070b78008502e90077
:1012a000e08f5200f8ff3a000800370034002000b9
:1012b000040f780010079800210798003207980063
:1012c0000e007800d0ff07003e0190000200780079
:1012d0000080fa00000006000000fa00889fbe00af
:1012e0008a9fbe003004be002005be0004044400f6
:1012f00085844c0006054d0087854d000898be008a
:101300000a90be000440e10005c8e10006d0e100fb
:1013100007d8e10002003100680040001008e80032
:101320004f05be004f04be000080fa00000006001a
:101330001000fa00889fbe008a9fbe000605be000e
:101340000404be003002be002003be00049fbe00a5
:101350000697be000802520089825a000a035b0009
:101360008b835b0044079800550798006607980038
:10137000770798000498be000698be001100200070
:101380003e02be002e03be000820e10009a8e100d5
:101390000ab0e1000bb8e100010039008000eb0069
:1013a000108810004f05be004f04be000080fa00f8
:1013b000000006001400fa00889fbe008a9fbe004d
:1013c0008c9fbe00590007000605be000404be0045
:1013d0000006eb004c0798003c0798002c0798008b
:1013e0001c0798000c0f78000d0420004e0390009d
:1013f000be029000860343002e029000e00f5300cf
:1014000003003d002a000700b3ff07000200370079
:1014100027000700c6ff0700ce029000150f9800b6
:10142000e08f52000900350045000700140020003d
:10143000050020006033b800000072008180720057
:101440000201730083817300380007000c06e80076
:101450008d0f5600e5ff3a001e0a9000e00f520083
:1014600004003d000802be000a03be000e00780022
:1014700099ff07004eba9700e00f520006003a00ad
:101480003e04be002e05be0058079800690798006c
:101490007a0798000b0f9800290007004f06be003e
:1014a0004f05be004f04be000080fa000000060099
:1014b0004f2bde0087037300470798004f23de00a1
:1014c0008582420085027300350798009e029000d5
:1014d0004f2bde0004024200040273002407980030
:1014e0001e0278004f23de008582420085027300d1
:1014f00015079800120007004f18de000402420092
:10150000000f72000e0007000000400081804800bc
:101510000201490083814900040007000802be005f
:101520000a03be000e007800000006005007980075
:101530006107980072079800030f980000000600ea
:101540005e009000ee0090007e0190008e099000f9
:10155000000006000000fa00881f78001800200034
:10156000881f780093ff07008f87e9004f047800f9
:101570000080fa00000006000000fa00801feb0067
:101580008cff07008f87e9000080fa00000006004a
:101590000000fa00889fbe008a9fbe00e00f500046
:1015a000e08f5800e00f5900e08f59000c003d001b
:1015b0006044b8006055b8000000540081805c00b1
:1015c00002015d0083815d00180020001600070005
:1015d00008003d00190007000004eb00050037007b
:1015e0000004eb001000070002003d00130007009c
:1015f00018002000d7ff0700e00f5400060032005b
:101600006022b8006033b8000000520081805a00a8
:1016100002015b0083815b004f05be004f04be00ea
:101620000080fa0000000600e00f5200e08f5a0030
:10163000e00f5b00e08f5b00000006006044b80034
:101640006055b8000402540085825c0006035d000a
:1016500087835d00000006000000fa00889fbe003e
:101660008a9fbe008c1f7800e00f5000e08f58006a
:10167000e00f5900e08f59000d003d006044b800b4
:101680006055b8000000540081805c0002015d00dc
:1016900083815d001c0020000820e10009a8e10012
:1016a0000ab0e1000bb8e1000d003d000800370072
:1016b0000006eb00e00f5200e08f5a00e00f5b00e5
:1016c000e08f5b0006003d006044b8006055b80044
:1016d0000402540085825c0006035d0087835d0080
:1016e000a5ff0700e00f5600060032006022b80098
:1016f0006033b8000000520081805a0002015b0094
:1017000083815b004f0678004f05be004f04be008a
:081710000080fa000000060051
:020000040000fa
:101718005365000072690000616c000020420000ff
:101728007566000066650000722000004f760000b4
:1017380065720000727500006e00000046720000bd
:10174800616d0000696e00006720000045720000ae
:10175800726f0000720000005061000072690000a2
:101768007479000020450000727200006f7200005a
:101778000000000054450000535400000000000021
:020000040000fa
:101788000000fa002062a800b4122000441188006a
:10179800041180000410a1000420a1000411880095
:1017a8002002a9002082a80020a2a90020c2a90026
:1017b80020e2a90023c2a80022a2a90021e2a800d1
:1017c8002342a8000080fa00000006000200fa0088
:1017d800004f780000000000151180000410200060
:1017e80004826200e00f5200fbff32009e42780044
:1017f8000582fb00241188000080fa000000060022
:101808000400fa00100798000002eb00040f7800ab
:10181800060037001e0290001e0242008402e80003
:101828000042eb00844a78001e0fe800f403200011
:101838009e027800848f5200f6ff34009e029000ca
:101848000042eb00844a78000080fa00000006009d
:101858000200fa00000f7800141180006202620092
:10186800e00f520002003200c0b82800c1fb070098
:101878001411800064026200e00f5200020032007e
:1018880020ba2800bbfb0700141180006802620020
:10189800e00f52000200320000bb2800b5fb070031
:1018a8001411800061026200e00f52002000320033
:1018b8001e02780094427800e4c3b30084cf52003b
:1018c80019003e001e027800144278000442e80025
:1018d8009e027800844a78001e027800144278003c
:1018e8008482fb0034118000044278001e037800d3
:1018f800850243008502e800844a78001e027800c9
:10190800144278000482fb009e02780004824200a0
:101918000402e800144278000402fb000400780086
:10192800a0fb0700020037001e007800b4ff070084
:101938000080fa00000006001000fa004007980036
:10194800214f980062079800634f98000042eb000f
:10195800044f78000042eb00144798000042eb0067
:1019680024479800410037000042eb0034479800b4
:10197800ae4290002e4a900084cf520006003100fb
:101988002e4290000482fb00ce02900004824200a6
:1019980094427800354798001e4290000442e800bf
:1019a800144798003e429000e04f52002c003a0045
:1019b8009e4278000582fb00ee02900004824200fd
:1019c8009e429000054a78001e4fe800ae42900003
:1019d8001e42900004c252000442e8006447980086
:1019e8002e429000744798006e4290000482fb00db
:1019f80024079800110037006e4a90009e42780034
:101a080084cf5200130031009e4278000582fb000b
:101a1800ee029000848242002e0290004e03900055
:101a28000402430014427800844a78001e4fe800fc
:101a38002e0290000402e800240798007e429000dd
:101a48008482fb002e029000848f5200eaff3c0043
:101a580001003700000000000042eb001447980026
:101a68002e4290000442e80024479800ae429000bd
:101a78002e4a900084cf5200bbff36000080fa0047
:101a8800000006000400fa00000f78001107980013
:101a98001e027800144278000482fb009e0278003f
:101aa800048242000402e800944278001e0290007a
:101ab8001442780084cf520002003a0014c0b300e8
:101ac800010037000042eb00044078000080fa0073
:101ad800000006000c00fa002007980061479800f3
:101ae80042079800530798004e029000040f7800b0
:101af8006e429000244798000b0037002e42900059
:101b08000482fb00ae029000848242001e0278002c
:101b180014427800844a78001e0fe8002e42900094
:101b28000442e800244798002e4290008482fb007b
:101b38006e4290000483fb005e02900004024300a2
:101b4800848f5200edff39005e02900084427800d5
:101b58006e42900004c24200044078000080fa00ff
:101b6800000006000000fa0001eca90001aca90081
:101b7800018ca900016ca900014ca900012ca90045
:101b8800010ca90000eca900046080000440a10039
:101b98000450a1000460a100046088000460800073
:101ba8000400a1000410a1000420a1000430a10039
:101bb80004608800146080000400a1000410a100e3
:101bc8000420a100146088001beca90021eca900e6
:101bd80021cca90021aca900218ca900216ca90065
:101be800214ca900212ca900210ca8000461800027
:101bf8000460a1000470a0000461880020aca90062
:101c0800206ca900204ca900202ca900200ca900b8
:101c180023eca90023cca80023aca900238ca9009d
:101c28001461800004a0a00004b0a1001461880021
:101c3800232ca900230ca900146180000440a100f2
:101c48000450a10014618800146180000420a100e0
:101c58000430a10014618800222ca900220ca900dc
:101c680043eca90043cca90063eca90063cca9000c
:101c780025618000f43f2800048262002461880006
:101c8800252ca900250ca9002561800074f02f00df
:101c98000482620024618800244ca9002461800029
:101ca8000400a0000410a00024618800f4618000f2
:101cb8000480a1000490a10004a0a10004b0a10028
:101cc800f4618800f46180000420a1000430a100c0
:101cd8000440a1000450a100f46188003e2ca90032
:101ce8003e0ca90004002200246088000002eb00da
:101cf800546088000080fa00000006000000fa0026
:101d080001eca8000080fa00000006000000fa00bc
:101d180001eca9000080fa00000006000200fa00a9
:101d2800004f78001e427800e04f52000300340054
:101d3800156ea800154ea90003003700156ea900fe
:101d4800154ea8001e4fea0044c6b3009e42780014
:101d580084cf52000200340044c6b300044f780018
:101d6800c4c9b3009e42780084cf520002003d00ef
:101d7800c4c9b300044f78001e4278000403fb0076
:101d8800cfb3de004d3add00c332de0085027200bb
:101d98004d32dd0042062000030020000400be0092
:101da80054fa07000002be0004027800546088005c
:081db8000080fa0000000600a3
:020000040000fa
:101dc0006410000004000000820000000000000019
:101dd0000000000042100000180000008000000019
:101de0005a1000000a0000008200000000000000fd
:101df00000000000000000000000000000100000d3
:101e000042000000800000004611000006000000b3
:101e10008000000008110000260000008200000081
:101e200047110000004711000900000000020000f7
:101e300049110000004911000e02010000000000dd
:101e40000000000000000000060202000000000088
:101e5000081100002e110000180000008200000090
:101e6000286e75006c6c290000303100323334006c
:101e700035363700383961006263640065660000fa
:101e800068100000a00000008200000001000000b7
:101e90000000000000000a00000000000000000038
:101ea000006400000000000000000000e8030000e3
:101eb00000000000000010002700000000000000eb
:101ec00000a08600010000000000000040420f005a
:101ed0000000000000008000969800000000000054
:101ee0000000e100f50500000000000000ca9a00b3
:101ef0003b00000000000000e40b54000200000062
:101f00000000e80076481700000000000010a5005f
:101f1000d4e8000000000000a0724e001809000084
:101f2000000040007a10f3005a0000000080c60054
:101f3000a47e8d000300000000c16f00f286230024
:101f4000000000008a5d7800456301000000640025
:101f5000a7b3b600e00d000000e889000423c70025
:101f60008a0000004c110000020000008200000006
:081f7000010000000000000068
:020000040000fa
:101f78000000fa0021e3a9002143a80025e3a900f5
:101f880000c2eb000440780024e3b7002043a80017
:101f98002083a900041980000450a1000460a10056
:101fa8000470a100041988001419800004d0a1004d
:101fb80004e0a10004f0a100141988000042eb001d
:101fc8000440780024e3b70045198000f40f2e0080
:101fd8008482620004102000048272004419880080
:101fe8000e2ea800002ea80021e3a80011eea900db
:101ff800114ea900116ea900118ea80011aea800fb
:1020080011cea8001d8ea8001daea8001dcea800e8
:102018003be3a900106ea900104ea8001e4ea900af
:102028001e6ea90085eaa9001c4ea800153a80007a
:10203800f40b20000483620064042000750520006e
:1020480027742000844b7800854b7800864b7800f5
:102058002536800004f82f008482620024022000c4
:10206800048272002436880005348000f40f2c00a6
:102078008482620004102000048272000434880004
:10208800e535800004f82f0084826200e402200015
:1020980004827200e4358800e5358000f40f2800da
:1020a8008482620004d0220004827200e435880031
:1020b800f535800004f82f0084826200c4022000f5
:1020c80004827200f4358800153a80000404200068
:1020d8000483720064042000750520002774200022
:1020e800844b7800854b7800864b78000080fa0096
:1020f800000006000000fa00c1e1a900c1a1a90082
:10210800040e800004a0a10004b0a10004c0a10036
:10211800040e8800040e80000480a1000490a10031
:10212800040e8800040e80000440a1000450a100a1
:102138000460a100040e8800c061a900c041a90084
:10214800040e80000400a1000410a100040e880001
:10215800c3e1a900c3c1a800140e800004b0a10007
:1021680004c0a10004d0a100140e8800140e800041
:102178000490a10004a0a100140e8800c301a900c6
:10218800c2e1a900c2c1a900c2a1a900c281a900d7
:10219800c581a900c541a900c501a900c4c1a900fc
:1021a800c4a1a900c441a900c401a900c1e1a800b3
:1021b8000080fa00000006000000fa00d4828000c7
:1021c800e5828000f482880005838800d68280003a
:1021d800e7828000340e80000500200006024200dd
:1021e80087824a00d4828800e5828800d6828000ef
:1021f800e7828000440e800005002000c022dd0038
:10220800040020000602420087824a00d482880027
:10221800e58288000002eb00340e88000002eb0023
:10222800440e88000080fa00000006000000fa0052
:10223800d4828000e582800004037800f482800064
:102248000583800004027800040253001483880088
:102258000080fa00000006000000fa002408800050
:102268000440a0000450a100240888000421a9000b
:1022780004c1a9000002eb0004088800041c220025
:10228800140888000442800004c0a00004d0a00004
:1022980004e0a000044288000068a9002068a900a2
:1022a800840880000440a1000450a000840888002d
:1022b8001061a9001021a90010c1a90011a1a9004d
:1022c8000002eb0034088800f47f2d0064088800c1
:1022d8001442800004c0a10004d0a00004e0a000c3
:1022e8001442880000e8a90020e8a9000080fa004c
:1022f800000006000000fa002068a8000080fa002c
:10230800000006000000fa002068a9000080fa001a
:10231800000006000000fa0020e8a8000080fa008b
:10232800000006000000fa0020e8a9000080fa007a
:10233800000006000000fa00243a80000480a10092
:102348000490a10004a0a100243a8800253a800046
:1023580004fe2f0004826200243a8800243a800098
:102368000460a1000470a100243a880094042000ad
:10237800343a880000000000153a80000400270065
:102388008482620004002100848f5200faff3a0020
:1023980000000000153a8000040220000482620058
:1023a800e00f5200fbff32000080fa000000060038
:1023b8000400fa00000f780011079800ddff0700fd
:1023c800ebfe0700a4ff0700e6fd070005e1a800f3
:1023d800c8ff070049fe070046ff0700e8fc0700a2
:1023e8000040eb004dfe0700e4bb2800841f780086
:0c23f800f1f807008f87e900ffff3700b5
:020000040000fa
:020000040005f5
:045fe000cdff0000f1
:020000040000fa
:020000040005f5
:045fe400ffff0000bb
:020000040000fa
:020000040005f5
:045fe8007fff000037
:020000040000fa
:020000040005f5
:045fec009bff000017
:020000040000fa
:020000040005f5
:045ff00039ff000075
:020000040000fa
:020000040005f5
:045ff400ffff0000ab
:00000001FF
